:100000000C9446000C9465000C9465000C946500FB
:100010000C9465000C9465000C9465000C946500CC
:100020000C9465000C9465000C9465000C946500BC
:100030000C9465000C9465000C9465000C946500AC
:100040000C9465000C9465000C9465000C9465009C
:100050000C9465000C9465000C9465000C9465008C
:100060000C9465000C9465000C9465000C9465007C
:100070000C9465000C9465000C9465000C9465006C
:100080000C9465000C9465000C94650011241FBE4F
:10009000CFEFD0E4DEBFCDBF11E0A0E0B1E0ECE6F1
:1000A000F7E000E00BBF02C007900D92A231B1074C
:1000B000D9F721E0A2E1B1E001C01D92AD31B20754
:1000C000E1F70E940E020C94B4030C940000CF934D
:1000D000C82F8A3019F48DE00E9467008091C0001B
:1000E00085FFFCCFC093C60080E090E0CF910895DB
:1000F000CF92DF92EF92FF926B017C01609117012A
:10010000709118018091190190911A01A70196012F
:100110000E942002882309F458C020E030E0A901A1
:10012000C701B6010E942002811106C0E1E9F0E09A
:1001300080818870808305C0E1E9F0E08081836080
:10014000808328E539E344E75FE3C701B6010E94F5
:10015000200288233CF48FEF9FEF909399008093C7
:10016000980027C020E034E244EF56E4C701B6010E
:100170000E94420318162CF41092990010929800D5
:1001800018C020E030E040E053E4C701B6010E940F
:1001900047039B01AC0160E074E284EF9AE40E94A3
:1001A00025020E9497026150710970939900609333
:1001B00098001092950010929400C0921701D0926E
:1001C0001801E0921901F0921A01FF90EF90DF9070
:1001D000CF90089580E4809390008BE0809391000D
:1001E00060E070E0CB010E947800089510929000CA
:1001F00010929100089580B1809520911B0130915B
:100200001C012230310509F445C038F421153105AF
:1002100069F02130310599F076C02330310509F4B9
:100220004CC02430310509F45BC06DC00E94F6005B
:1002300081E090E090931C0180931B0168C087705F
:10024000813049F40E94EA0082E090E090931C0122
:1002500080931B015CC0823049F40E94EA0083E075
:1002600090E090931C0180931B0151C0843049F4AD
:100270000E94EA0084E090E090931C0180931B01AF
:1002800046C00E94F60081E090E090931C018093AC
:100290001B013DC08770813039F482E090E090937B
:1002A0001C0180931B0133C00E94F60081E090E0A6
:1002B00090931C0180931B012AC08770823039F40F
:1002C00083E090E090931C0180931B0120C00E946A
:1002D000F60081E090E090931C0180931B0117C011
:1002E0008770843039F484E090E090931C0180930F
:1002F0001B010DC00E94F60081E090E090931C016C
:1003000080931B0104C010921C0110921B0180916C
:100310001B0190911C018330910561F0843091059F
:1003200081F00297A1F464EA70ED82E893E40E9400
:100330007800089564E17EEC82E993E40E947800FD
:10034000089564EA70ED84EA93E40E9478000895C9
:100350008BE0809381008DE790E0909389008093FB
:10036000880082E080936F001092850010928400D4
:100370008091000190910101A0910201B0910301CF
:100380008093120190931301A0931401B09315016F
:100390008FB780688FBF089510928100089581E023
:1003A0008093160108958091120190911301A091FC
:1003B0001401B09115010197A109B10980931201AF
:1003C00090931301A0931401B0931501892B8A2BEC
:1003D0008B2B91F40E94CF0180910001909101013B
:1003E000A0910201B0910301809312019093130137
:1003F000A0931401B09315010895609300017093C8
:1004000001018093020190930301609312017093A4
:1004100013018093140190931501089511B88FEF83
:1004200082B984B915B86CE271E080E090E00E9476
:10043000FD010E94A8010E94EA000E94FB00FDCF7E
:100440000E94CD0208F481E008950E9439020C94C4
:1004500008030E94010358F00E94FA0240F029F4B8
:100460005F3F29F00C94F10251110C943C030C9461
:10047000F7020E94190368F39923B1F3552391F30E
:10048000951B550BBB27AA2762177307840738F003
:100490009F5F5F4F220F331F441FAA1FA9F335D060
:1004A0000E2E3AF0E0E832D091505040E695001C14
:1004B000CAF72BD0FE2F29D0660F771F881FBB1FCE
:1004C000261737074807AB07B0E809F0BB0B802DAC
:1004D000BF01FF2793585F4F3AF09E3F510578F0D8
:1004E0000C94F1020C943C035F3FE4F3983ED4F388
:1004F000869577956795B795F7959F5FC9F7880FAC
:10050000911D9695879597F90895E1E0660F771FFD
:10051000881FBB1F621773078407BA0720F0621B8E
:10052000730B840BBA0BEE1F88F7E09508950E94B9
:100530009E026894B1110C943C0308950E9421031B
:1005400088F09F5798F0B92F9927B751B0F0E1F094
:10055000660F771F881F991F1AF0BA95C9F714C044
:10056000B13091F00E943B03B1E008950C943B033D
:10057000672F782F8827B85F39F0B93FCCF386957D
:1005800077956795B395D9F73EF4909580957095DA
:1005900061957F4F8F4F9F4F0895990F0008550F1A
:1005A000AA0BE0E8FEEF16161706E807F907C0F0F9
:1005B00012161306E407F50798F0621B730B840B01
:1005C000950B39F40A2661F0232B242B252B21F4DB
:1005D00008950A2609F4A140A6958FEF811D811D7B
:1005E000089597F99F6780E870E060E008959FEFB5
:1005F00080EC089500240A941616170618060906BA
:10060000089500240A941216130614060506089588
:10061000092E0394000C11F4882352F0BB0F40F410
:10062000BF2B11F460FF04C06F5F7F4F8F4F9F4F50
:10063000089557FD9058440F551F59F05F3F71F0D2
:100640004795880F97FB991F61F09F3F79F0879539
:100650000895121613061406551FF2CF4695F1DFC2
:1006600008C0161617061806991FF1CF8695710552
:10067000610508940895E894BB2766277727CB0186
:1006800097F908950E94CD0208F48FEF08950E9413
:100690005A030C9408030E94FA0238F00E940103E6
:1006A00020F0952311F00C94F1020C94F702112420
:1006B0000C943C030E94190370F3959FC1F3950FAE
:1006C00050E0551F629FF001729FBB27F00DB11DD6
:1006D000639FAA27F00DB11DAA1F649F6627B00D66
:1006E000A11D661F829F2227B00DA11D621F739F4F
:1006F000B00DA11D621F839FA00D611D221F749F5D
:100700003327A00D611D231F849F600D211D822FA3
:10071000762F6A2F11249F5750409AF0F1F08823CA
:100720004AF0EE0FFF1FBB1F661F771F881F9150F7
:100730005040A9F79E3F510580F00C94F1020C94B3
:100740003C035F3FE4F3983ED4F386957795679535
:10075000B795F795E7959F5FC1F7FE2B880F911D21
:0C0760009695879597F90895F894FFCFBF
:10076C000100000000000002000000006700000013
:02077C0000007B
:00000001FF
