:100000000C9446000C9465000C9465000C946500FB
:100010000C9465000C9465000C9465000C946500CC
:100020000C9465000C9465000C9465000C946500BC
:100030000C9465000C94BC010C9465000C94650054
:100040000C9465000C9465000C9465000C9465009C
:100050000C9465000C9465000C9465000C9465008C
:100060000C9465000C9465000C9465000C9465007C
:100070000C9465000C9465000C9465000C9465006C
:100080000C9465000C9465000C94650011241FBE4F
:10009000CFEFD0E4DEBFCDBF11E0A0E0B1E0E8E8F3
:1000A000F7E000E00BBF02C007900D92A233B1074A
:1000B000D9F721E0A2E3B1E001C01D92AF33B2074E
:1000C000E1F70E941C020C94C2030C940000CF9331
:1000D000C82F8A3019F48DE00E9467008091C0001B
:1000E00085FFFCCFC093C60080E090E0CF910895DB
:1000F000CF92DF92EF92FF926B017C016091390108
:1001000070913A0180913B0190913C01A7019601C9
:100110000E942E02882309F458C020E030E0A90193
:10012000C701B6010E942E02811106C0E1E9F0E08C
:1001300080818870808305C0E1E9F0E08081836080
:10014000808328E539E344E75FE3C701B6010E94F5
:100150002E0288233CF48FEF9FEF909399008093B9
:10016000980027C020E034E244EF56E4C701B6010E
:100170000E94500318162CF41092990010929800C7
:1001800018C020E030E040E053E4C701B6010E940F
:1001900055039B01AC0160E074E284EF9AE40E9495
:1001A00033020E94A5026150710970939900609317
:1001B00098001092950010929400C0923901D0924C
:1001C0003A01E0923B01F0923C01FF90EF90DF900A
:1001D000CF90089580E4809390008BE0809391000D
:1001E00060E070E0CB010E947800089510929000CA
:1001F00010929100089580B1809520913D01309139
:100200003E012130310569F028F02230310509F432
:1002100050C063C081E090E090933E0180933D0127
:1002200060C0982F917080FF0EC020913201211183
:100230000AC081E08093320182E090E090933E0119
:1002400080933D014EC0992369F09091320199232A
:1002500049F01092320182E090E090933E01809349
:100260003D013FC081FF0EC080913301882319F00A
:1002700081508093330182E090E090933E0180931F
:100280003D012FC082FF0EC080913301873019F0ED
:100290008F5F8093330182E090E090933E018093E2
:1002A0003D011FC081E090E090933E0180933D01AD
:1002B00018C080FD04C081FD02C082FF07C082E03B
:1002C00090E090933E0180933D010BC081E090E06F
:1002D00090933E0180933D0104C010923E01109224
:1002E0003D0180913D0190913E010197C9F48091BB
:1002F0003201882381F0E0913301F0E0EE0FFF1F1F
:10030000EE0FFF1FE050FF4F60817181828193816A
:100310000E947800089560E070E0CB010E947800B0
:1003200008958BE0809381008DE790E090938900A1
:100330008093880082E080936F0010928500109275
:1003400084008091200190912101A0912201B0911F
:1003500023018093340190933501A0933601B0932B
:1003600037018FB780688FBF08951092810008957C
:1003700081E08093380108951F920F920FB60F927B
:1003800011240BB60F922F933F934F935F936F936C
:100390007F938F939F93AF93BF93EF93FF9380913E
:1003A000340190913501A0913601B0913701019748
:1003B000A109B1098093340190933501A0933601CE
:1003C000B0933701892B8A2B8B2B91F40E94B801B3
:1003D0008091200190912101A0912201B0912301EF
:1003E0008093340190933501A0933601B093370187
:1003F000FF91EF91BF91AF919F918F917F916F91FD
:100400005F914F913F912F910F900BBE0F900FBEB8
:100410000F901F9018956093200170932101809395
:1004200022019093230160933401709335018093EE
:10043000360190933701089511B88FEF82B984B9CE
:1004400015B86CE271E080E090E00E940B020E941F
:1004500091010E94EA000E94FB00FDCF0E94DB0296
:1004600008F481E008950E9447020C9416030E944C
:100470000F0358F00E94080340F029F45F3F29F071
:100480000C94FF0251110C944A030C9405030E9432
:10049000270368F39923B1F3552391F3951B550B6B
:1004A000BB27AA2762177307840738F09F5F5F4F47
:1004B000220F331F441FAA1FA9F335D00E2E3AF086
:1004C000E0E832D091505040E695001CCAF72BD09E
:1004D000FE2F29D0660F771F881FBB1F26173707EF
:1004E0004807AB07B0E809F0BB0B802DBF01FF2721
:1004F00093585F4F3AF09E3F510578F00C94FF02FD
:100500000C944A035F3FE4F3983ED4F386957795C5
:100510006795B795F7959F5FC9F7880F911D9695D9
:10052000879597F90895E1E0660F771F881FBB1F35
:10053000621773078407BA0720F0621B730B840BE2
:10054000BA0BEE1F88F7E09508950E94AC026894FC
:10055000B1110C944A0308950E942F0388F09F570D
:1005600098F0B92F9927B751B0F0E1F0660F771FD7
:10057000881F991F1AF0BA95C9F714C0B13091F0CD
:100580000E944903B1E008950C944903672F782F26
:100590008827B85F39F0B93FCCF386957795679592
:1005A000B395D9F73EF490958095709561957F4FFE
:1005B0008F4F9F4F0895990F0008550FAA0BE0E841
:1005C000FEEF16161706E807F907C0F01216130615
:1005D000E407F50798F0621B730B840B950B39F455
:1005E0000A2661F0232B242B252B21F408950A26BB
:1005F00009F4A140A6958FEF811D811D089597F9FB
:100600009F6780E870E060E008959FEF80EC0895B8
:1006100000240A94161617061806090608950024E1
:100620000A9412161306140605060895092E03945B
:10063000000C11F4882352F0BB0F40F4BF2B11F4CF
:1006400060FF04C06F5F7F4F8F4F9F4F089557FD2E
:100650009058440F551F59F05F3F71F04795880F30
:1006600097FB991F61F09F3F79F0879508951216C7
:1006700013061406551FF2CF4695F1DF08C0161673
:1006800017061806991FF1CF869571056105089424
:100690000895E894BB2766277727CB0197F908953B
:1006A0000E94DB0208F48FEF08950E9468030C9407
:1006B00016030E94080338F00E940F0320F09523D0
:1006C00011F00C94FF020C94050311240C944A03BE
:1006D0000E94270370F3959FC1F3950F50E0551FBB
:1006E000629FF001729FBB27F00DB11D639FAA2787
:1006F000F00DB11DAA1F649F6627B00DA11D661FD6
:10070000829F2227B00DA11D621F739FB00DA11DF6
:10071000621F839FA00D611D221F749F3327A00DB0
:10072000611D231F849F600D211D822F762F6A2F4C
:1007300011249F5750409AF0F1F088234AF0EE0FB1
:10074000FF1FBB1F661F771F881F91505040A9F7DE
:100750009E3F510580F00C94FF020C944A035F3FCA
:10076000E4F3983ED4F3869577956795B795F7951A
:10077000E7959F5FC1F7FE2B880F911D9695879592
:0807800097F90895F894FFCFEA
:10078800A4D082437BD49243A4D0A443719DAE43AA
:100798000000C4430000DC43A4F0F64300D0024448
:1007A80001000000000000020000000067000000D7
:0207B80000003F
:00000001FF
