:100000000C9446000C9465000C9465000C946500FB
:100010000C9465000C9465000C9465000C946500CC
:100020000C9465000C9465000C9465000C946500BC
:100030000C9465000C94E6010C9465000C9465002A
:100040000C9465000C9465000C9465000C9465009C
:100050000C9465000C9465000C9465000C9465008C
:100060000C9465000C9465000C9465000C9465007C
:100070000C9465000C9465000C9465000C9465006C
:100080000C9465000C9465000C94650011241FBE4F
:10009000CFEFD0E4DEBFCDBF11E0A0E0B1E0E8EEED
:1000A000F7E000E00BBF02C007900D92A239B10744
:1000B000D9F721E0A2E9B1E001C01D92AF39B20742
:1000C000E1F70E9446020C94F2030C940000CF93D7
:1000D000C82F8A3019F48DE00E9467008091C0001B
:1000E00085FFFCCFC093C60080E090E0CF910895DB
:1000F000CF92DF92EF92FF926B017C0160919901A8
:1001000070919A0180919B0190919C01A7019601A9
:100110000E945E02882309F458C020E030E0A90163
:10012000C701B6010E945E02811106C0E1E9F0E05C
:1001300080818870808305C0E1E9F0E08081836080
:10014000808328E539E344E75FE3C701B6010E94F5
:100150005E0288233CF48FEF9FEF90939900809389
:10016000980027C020E034E244EF56E4C701B6010E
:100170000E94800318162CF4109299001092980097
:1001800018C020E030E040E053E4C701B6010E940F
:1001900085039B01AC0160E074E284EF9AE40E9465
:1001A00063020E94D50261507109709399006093B7
:1001B00098001092950010929400C0929901D092EC
:1001C0009A01E0929B01F0929C01FF90EF90DF90EA
:1001D000CF90089580E4809390008BE0809391000D
:1001E00060E070E0CB010E947800089510929000CA
:1001F00010929100089580B1282F209580919D0143
:1002000090919E018230910531F128F4009751F0D0
:10021000019789F082C083309105C1F1049709F4F8
:100220006CC07BC00E94EA0081E090E090939E0148
:1002300080939D0176C020FF07C082E090E09093FC
:100240009E0180939D016DC081E090E090939E019E
:1002500080939D0166C0E0919301F0E0EB5EFE4F5C
:10026000908180917E01891738F482E090E090932C
:100270009E0180939D0155C081E080937E0183E0C3
:1002800090E090939E0180939D014BC080919301DB
:10029000E82FF0E0EB5EFE4F308190917E019317E6
:1002A00038F483E090E090939E0180939D0139C0E3
:1002B000843169F091E090937E018F5F8093930188
:1002C00082E090E090939E0180939D012AC020FFE0
:1002D0000BC0843149F41092930184E090E0909334
:1002E0009E0180939D011DC01092930181E090E0DA
:1002F00090939E0180939D0114C020FF07C084E06D
:1003000090E090939E0180939D010BC081E090E06E
:1003100090939E0180939D0104C010929E011092C3
:100320009D0180919D0190919E018230910519F06F
:100330000397B1F00895E0919301F0E0EE0FFF1FF5
:10034000EE0FFF1FE65DFE4F608171818281938118
:100350000E94780080917E018F5F80937E010895D6
:1003600060E070E0CB010E94780080917E018F5F99
:1003700080937E0108958BE0809381008DE790E06B
:10038000909389008093880082E080936F001092A0
:1003900085001092840080917F0190918001A0914E
:1003A0008101B09182018093940190939501A09373
:1003B0009601B09397018FB780688FBF0895109210
:1003C0008100089581E08093980108951F920F9213
:1003D0000FB60F9211240BB60F922F933F934F93AA
:1003E0005F936F937F938F939F93AF93BF93EF939D
:1003F000FF938091940190919501A0919601B09105
:1004000097010197A109B1098093940190939501F7
:10041000A0939601B0939701892B8A2B8B2B91F493
:100420000E94E20180917F0190918001A091810161
:10043000B09182018093940190939501A0939601CD
:10044000B0939701FF91EF91BF91AF919F918F91E1
:100450007F916F915F914F913F912F910F900BBEC4
:100460000F900FBE0F901F90189560937F017093AF
:100470008001809381019093820160939401709335
:1004800095018093960190939701089511B88FEF8D
:1004900082B984B915B868EC70E080E090E00E9401
:1004A00035020E94BB010E94EA000E94FB0080917D
:1004B00098018823E1F310929801F7CF0E940B0373
:1004C00008F481E008950E9477020C9446030E948C
:1004D0003F0358F00E94380340F029F45F3F29F0B1
:1004E0000C942F0351110C947A030C9435030E9441
:1004F000570368F39923B1F3552391F3951B550BDB
:10050000BB27AA2762177307840738F09F5F5F4FE6
:10051000220F331F441FAA1FA9F335D00E2E3AF025
:10052000E0E832D091505040E695001CCAF72BD03D
:10053000FE2F29D0660F771F881FBB1F261737078E
:100540004807AB07B0E809F0BB0B802DBF01FF27C0
:1005500093585F4F3AF09E3F510578F00C942F036B
:100560000C947A035F3FE4F3983ED4F38695779535
:100570006795B795F7959F5FC9F7880F911D969579
:10058000879597F90895E1E0660F771F881FBB1FD5
:10059000621773078407BA0720F0621B730B840B82
:1005A000BA0BEE1F88F7E09508950E94DC0268946C
:1005B000B1110C947A0308950E945F0388F09F574D
:1005C00098F0B92F9927B751B0F0E1F0660F771F77
:1005D000881F991F1AF0BA95C9F714C0B13091F06D
:1005E0000E947903B1E008950C947903672F782F66
:1005F0008827B85F39F0B93FCCF386957795679532
:10060000B395D9F73EF490958095709561957F4F9D
:100610008F4F9F4F0895990F0008550FAA0BE0E8E0
:10062000FEEF16161706E807F907C0F012161306B4
:10063000E407F50798F0621B730B840B950B39F4F4
:100640000A2661F0232B242B252B21F408950A265A
:1006500009F4A140A6958FEF811D811D089597F99A
:100660009F6780E870E060E008959FEF80EC089558
:1006700000240A9416161706180609060895002481
:100680000A9412161306140605060895092E0394FB
:10069000000C11F4882352F0BB0F40F4BF2B11F46F
:1006A00060FF04C06F5F7F4F8F4F9F4F089557FDCE
:1006B0009058440F551F59F05F3F71F04795880FD0
:1006C00097FB991F61F09F3F79F087950895121667
:1006D00013061406551FF2CF4695F1DF08C0161613
:1006E00017061806991FF1CF8695710561050894C4
:1006F0000895E894BB2766277727CB0197F90895DB
:100700000E940B0308F48FEF08950E9498030C9445
:1007100046030E94380338F00E943F0320F09523DF
:1007200011F00C942F030C94350311240C947A03CC
:100730000E94570370F3959FC1F3950F50E0551F2A
:10074000629FF001729FBB27F00DB11D639FAA2726
:10075000F00DB11DAA1F649F6627B00DA11D661F75
:10076000829F2227B00DA11D621F739FB00DA11D96
:10077000621F839FA00D611D221F749F3327A00D50
:10078000611D231F849F600D211D822F762F6A2FEC
:1007900011249F5750409AF0F1F088234AF0EE0F51
:1007A000FF1FBB1F661F771F881F91505040A9F77E
:1007B0009E3F510580F00C942F030C947A035F3F09
:1007C000E4F3983ED4F3869577956795B795F795BA
:1007D000E7959F5FC1F7FE2B880F911D9695879532
:0807E00097F90895F894FFCF8A
:1007E80001010101010101010101010101010101F1
:1007F80001010101000101010101010101010501DE
:10080800010101010101010101055CCFA443A4D04C
:10081800A443A4D0A443A4D0A4437BD49243A4D09B
:10082800A4430000DC437BD4A4437BD492437BD411
:1008380092437BD492437BD492437BD492437BD420
:100848009243A4D082437BD492430000C4437BD418
:100858009243A4D08243A4F07643A4D082430101FA
:100868000000000000000200000000670000000017
:0208780000007E
:00000001FF
